:020000040800F2
:1000000000000220FD0D00084F0E00085D0E0008E4
:10001000630E0008690E00086F0E00080000000063
:10002000000000000000000000000000750E000845
:10003000830E000800000000910E00089F0E0008CB
:100040004D0E00084D0E00084D0E00084D0E000824
:100050004D0E00084D0E00084D0E00084D0E000814
:100060004D0E00084D0E00084D0E00084D0E000804
:100070004D0E00084D0E00084D0E00084D0E0008F4
:100080004D0E00084D0E00084D0E00084D0E0008E4
:100090004D0E00084D0E00084D0E00084D0E0008D4
:1000A0004D0E00084D0E00084D0E00084D0E0008C4
:1000B0004D0E00084D0E00084D0E00084D0E0008B4
:1000C0004D0E00084D0E00084D0E00084D0E0008A4
:1000D0004D0E00084D0E0008E90C00084D0E0008FA
:1000E0004D0E00084D0E00084D0E00084D0E000884
:1000F0004D0E00084D0E00084D0E00084D0E000874
:100100004D0E00084D0E00084D0E00084D0E000863
:100110004D0E00084D0E00084D0E00084D0E000853
:100120004D0E00084D0E00084D0E00084D0E000843
:100130004D0E00084D0E00084D0E00084D0E000833
:100140004D0E00084D0E00084D0E00084D0E000823
:100150004D0E00084D0E00084D0E00084D0E000813
:100160004D0E00084D0E00084D0E00084D0E000803
:100170004D0E00084D0E00084D0E00084D0E0008F3
:080180004D0E00084D0E0008B1
:1001880010B5054C237833B9044B13B10448AFF3C9
:1001980000800123237010BD7400002000000000BF
:1001A8005810000808B5034B1BB103490348AFF3C7
:1001B800008008BD000000007800002058100008EA
:1001C80080B483B000AF03460A46FB711346BB7187
:1001D8000A480A4B1B6BFA79012101FA02F2D24351
:1001E8001340B979FA7901FA02F21343036300BFA5
:1001F8000C37BD465DF8047B704700BF00380240ED
:1002080090B585B000AF0023FB730023BB730023B8
:100218007B730023FB73B1E1FA7B6F4913465B00E4
:1002280013445B000B441B781B09BB73FA7B6A49B8
:1002380013465B0013445B000B441B7803F00F0369
:100248007B730023BB60BB7B01211846FFF7B8FF17
:10025800BB7B624A52F823307B60FA7B5E491346C7
:100268005B0013445B000B4401331B78032B21D83C
:100278007B681B68BB607B7B5B00032202FA03F38D
:10028800DB43BA681340BB60FA7B534913465B00F3
:1002980013445B000B4401331B7803F003027B7BA0
:1002A8005B0002FA03F3BA681343BB607B68BA6861
:1002B8001A60BFE0FA7B484913465B0013445B00B1
:1002C8000B4401331B78042B13D14549444BDB689D
:1002D8007A7B012000FA02F21343CB604049404B7D
:1002E8009B687A7B012000FA02F2D24313408B60AC
:1002F8003BE0FA7B384913465B0013445B000B4430
:1003080001331B78052B13D13549354B9B687A7B14
:10031800012000FA02F213438B603149304BDB684D
:100328007A7B012000FA02F2D2431340CB601CE032
:10033800FA7B294913465B0013445B000B440133E5
:100348001B78062B11D12649254B9B687A7B012007
:1003580000FA02F213438B602149214BDB687A7B58
:10036800012000FA02F21343CB607B7B9B08FB70F1
:100378007B7B03F00303BB707B681A4A934237D038
:100388007B68194A934225D07B68184A93421FD04C
:100398007B68154A934219D07B68124A934213D05E
:1003A8007B68114A93420DD07B680E4A934207D06E
:1003B8007B680D4A934201D107231AE0002318E015
:1003C800062316E0052314E0042312E0032310E0BB
:1003D80002230EE001230CE024000020000000208E
:1003E800003C0140000002400004024000080240B6
:1003F80000237B706548FB787978BA78920001FA17
:1004080002F2023340F82320614A614B5B6C43F4EB
:10041800804353645F485F4B1968FA7B5E4C134610
:100428005B0013445B0023441B781A460123934066
:100438000B4303600023BB607B689B68BB607B7BCE
:100448005B00032202FA03F3DB43BA681340BB6084
:10045800FA7B514913465B0013445B000B4402339B
:100468001B7803F003027B7B5B0002FA03F3BA6894
:100478001343BB607B68BA689A607B68DB68BB60C3
:100488007B7B5B00032202FA03F3DB43BA68134069
:10049800BB60FA7B404913465B0013445B000B4486
:1004A80003331B7803F003027B7B5B0002FA03F340
:1004B800BA681343BB607B68BA68DA607B685B68BC
:1004C800BB607B7B5B00032202FA03F3DB43BA6861
:1004D8001340BB60FA7B304913465B0013445B0052
:1004E8000B4404331B7803F003027B7B5B0002FAA6
:1004F80003F3BA681343BB607B68BA685A60FA7B37
:10050800254913465B0013445B000B4401331B78F9
:10051800022B30D17B7BDB08DBB21A467B680832C2
:1005280053F82230BB607B7B03F007039B000F224C
:1005380002FA03F3DB43BA681340BB60FA7B16493F
:1005480013465B0013445B000B4405331B781A46C3
:100558007B7B03F007039B0002FA03F31A46BB6890
:100568001343BB607B7BDB08DBB21A467B6808322F
:10057800B96843F82210FB7B0133FB73FB7B032B29
:100588007FF64AAE00BF1437BD4690BD0038014023
:1005980000380240003C01402400002080B485B0AF
:1005A80000AF03460A46FB711346BB710023FB7379
:1005B8000023BB73FB791B09FB73FB7903F00F0363
:1005C800BB73FB7B104A52F82330BB60BB79012B0D
:1005D80009D1BB685B69BA7B012101FA02F21A43AF
:1005E800BB685A6109E0BB685B69BA7B012101FA03
:1005F80002F2D2431A40BB685A6100BF1437BD46A5
:100608005DF8047B704700BF0000002080B584B00F
:1006180000AF254B9B689B08DBB203F003037B729A
:100628007B7A002B02D1214BFB600BE07B7A012BFC
:1006380002D11F4BFB6005E07B7A022B02D100F050
:100648008DF8F860184B9B681B09DBB203F00F03A9
:100658003B723B7A072B02D80123FB7205E03B7AF9
:10066800083B144A32F81330FB720F4B9B689B0A05
:10067800DBB203F007033B723B7A032B02D801235A
:10068800BB7204E03B7A043B0B4AD35CBB72FB7A37
:10069800FA68B2FBF3F2BB7AB2FBF3F37B607B68D8
:1006A80018461037BD4680BD003802400024F400CB
:1006B80000127A003C0000204C00002080B485B075
:1006C80000AF0023FB60204B9B689B08DBB203F064
:1006D80003037B727B7A002B02D11C4BFB6001E089
:1006E8001B4BFB60184B9B681B0903F00F037B60D7
:1006F8007B68072B02D80123FB7205E07B68083B67
:10070800144A32F81330FB720F4B9B685B0B03F0F3
:1007180007037B607B68032B02D80123BB7204E0CC
:100728007B68043B0C4AD35CBB72FB7AFA68B2FB69
:10073800F3F2BB7AB2FBF3F33B603B68184614371D
:10074800BD465DF8047B7047003802400024F40081
:1007580000127A003C0000204C00002080B487B0D2
:1007680000AF00233B610023FB6000237B61022371
:10077800BB6000237B6002233B601C4B5B689B0DC6
:1007880003F001037B60194B5B6803F03F033B6098
:100798007B68002B0CD0164A3B68B2FBF3F3134A74
:1007A80052689209C2F3080202FB03F37B610BE073
:1007B800104A3B68B2FBF3F30C4A52689209C2F341
:1007C800080202FB03F37B61084B5B681B0C03F018
:1007D800030301335B00BB607A69BB68B2FBF3F3C8
:1007E80018461C37BD465DF8047B70470038024048
:1007F80000127A000024F40080B485B000AF0346EC
:100808000A46FB711346BB71FB790C4A52F8233038
:10081800FB60FB689B899BB21BB223F400531AB29E
:10082800BB795B031BB213431BB29AB2FB689A8174
:1008380000BF1437BD465DF8047B704750000020A8
:1008480080B483B000AF03460A46FB711346BB7100
:10085800FB79002B02D0052B12D021E01C481C4B41
:100868005B6CFA790432012101FA02F2D243134097
:10087800B979FA79043201FA02F21343436420E0A9
:100888001348134B5B6CFA79012101FA02F2D24347
:100898001340B979FA7901FA02F21343436410E07C
:1008A8000B480B4B1B6CFA791032012101FA02F24A
:1008B800D2431340B979FA79103201FA02F213439C
:1008C800036400BF0C37BD465DF8047B704700BF6A
:1008D8000038024080B485B000AF03463960FB7130
:1008E800FB790C4A52F82330FB60FB681B889BB2EB
:1008F800194601223B6802FA03F301EA03023B6846
:1009080042FA03F3DBB218461437BD465DF8047BA0
:10091800704700BF5000002080B588B000AF034684
:100928003960FB71FB79354A52F823303B6100236B
:10093800FB603B69324A934203D03B69314A934298
:1009480003D1FFF7BBFEF86102E0FFF75FFEF86135
:100958003B699B899BB21BB2002B0BDAFA691346E1
:100968009B0013449A001A443B685B00B2FBF3F304
:10097800BB610AE0FA6913469B0013449A001A44C3
:100988003B689B00B2FBF3F3BB61BB691E4AA2FB49
:1009980003235B09BB60BB681B01FA681343FB6058
:1009A800BB68642202FB03F3BA69D31A7B613B6913
:1009B8009B899BB21BB2002B0ADA7B69DB003233BE
:1009C800114AA2FB03235B0903F007037B6109E0DB
:1009D8007B691B0132330C4AA2FB03235B0903F03A
:1009E8000F037B61FA687B691343FB60FB689AB26B
:1009F8003B691A8100BF2037BD4680BD50000020EA
:100A080000100140001401401F85EB5180B584B0EF
:100A180000AF0023FB600023FB72E1E0FA7A74491F
:100A280013465B0013449B000B441B781A46714B1A
:100A380053F822307B60FA7A6D4913465B00134401
:100A48009B000B441B7801211846FFF7F9FEFA7A40
:100A5800674913465B0013449B000B4401331B7822
:100A6800012B04D0022B0CD0002B05D00EE0FB6824
:100A780043F00403FB6009E0FB6843F00803FB60F4
:100A880004E0FB6843F00C03FB6000BFFA7A5849A6
:100A980013465B0013449B000B4409331B781B036C
:100AA8001A46FB681343FB60FA7A514913465B0008
:100AB80013449B000B440A331B78012B02D0022BF2
:100AC80005D00DE0FB6843F48063FB6008E0FB6839
:100AD80043F48063FB60FB6843F40073FB6000BF72
:100AE800FA7A434913465B0013449B000B441B7876
:100AF8001A46404B53F82230FA6892B29A81FA7A31
:100B08003B4913465B0013449B000B441B780121AF
:100B18001846FFF771FE0023FB60FA7A3449134642
:100B28005B0013449B000B4408331B781B031A46D5
:100B3800FB681343FB60FA7A2D4913465B001344A4
:100B48009B000B441B781A462A4B53F82230FA684C
:100B580092B21A820023FB60FA7A254913465B0099
:100B680013449B000B440B331B78022B08D0032B38
:100B78000BD0012B0ED1FB6843F40073FB6009E036
:100B8800FB6843F48073FB6004E0FB6843F4407344
:100B9800FB6000BFFA7A164913465B0013449B00BA
:100BA8000B441B781A46134B53F82230FA6892B25A
:100BB8009A82FA7A0E4913465B0013449B000B4451
:100BC8001878FA7A0A4913465B0013449B000B44D1
:100BD80004331B681946FFF79FFEFB7A0133FB724B
:100BE800FB7A002B3FF41AAF00BF1037BD4680BD1B
:100BF800680000205000002080B485B000AF034694
:100C0800FB710B46BB7113467B71FB79174A52F88F
:100C18002330FB607B79002B11D0012B00D01FE023
:100C2800FB689B899BB21AB2BB79012101FA03F3D5
:100C38001BB213431BB29AB2FB689A8110E0FB689F
:100C48009B899BB21AB2BB79012101FA03F31BB24B
:100C5800DB431BB213401BB29AB2FB689A8100BFF8
:100C680000BF1437BD465DF8047B70475000002074
:100C780080B485B000AF03460A46FB711346BB71CA
:100C88000023FB730023BB73FB795B09FB73FB79C0
:100C980003F01F03BB73BB79002B0ED0012B00D0D0
:100CA80015E0FB7B9B0003F1604303F56143BA7BCE
:100CB800012101FA02F21A6009E0FB7B9A00074B56
:100CC8001344BA7B012101FA02F21A6000BF00BF87
:100CD8001437BD465DF8047B704700BF80E100E033
:100CE80098B500AF01213D20FFF758FC05210120F0
:100CF800FFF7F0FD0346002B3BD0324B1B78DBB2ED
:100D08001946314B5B689B889BB2DAB22D4B0B447A
:100D18009A702C4B1B7BDBB20A2B07D0294B1B7B11
:100D2800DBB20133DAB2274B1A7310E0254B5B783C
:100D3800DBB25A1C254B83FB02135910D317C91A6F
:100D48000B46DB000B44D11ACAB21E4B5A701D4B1E
:100D58001B78DBB25A1C1D4B83FB02135910D317A7
:100D6800C91A0B46DB000B44D11ACAB2154B1A70CC
:100D780026E007210120FFF7ADFD0346002B1FD019
:100D8800134B1B899AB2124B1B889BB29A420FD203
:100D98000D4B5A680E4B59680D4B1B899BB2581C5A
:100DA80084B20B4804810B441B789BB2938007E004
:100DB800002207210120FFF71FFF054B00229A722E
:100DC80000BF98BD9C00002050000020398EE338F9
:100DD8009000002080B500AFFFF712FAFFF716FE6B
:100DE800012205210120FFF707FF01212620FFF737
:100DF8003FFFFEE7DFF834D0002103E00C4B5B58DF
:100E0800435004310B480C4B42189A42F6D30B4A14
:100E180002E0002342F8043B094B9A42F9D300F060
:100E280041F800F0F1F8FFF7D5FF70470000022005
:100E380078100008000000207400002074000020D2
:100E4800AC000020FEE780B400AF00BFBD465DF8EF
:100E5800047B704780B400AFFEE780B400AFFEE7C4
:100E680080B400AFFEE780B400AFFEE780B400AF07
:100E780000BFBD465DF8047B704780B400AF00BF7B
:100E8800BD465DF8047B704780B400AF00BFBD4627
:100E98005DF8047B704780B400AF00BFBD465DF8C5
:100EA800047B704780B500AF164A164BD3F88830DC
:100EB80043F47003C2F88830134A134B1B6843F09D
:100EC80001031360104B00229A600F4A0E4B1B68F7
:100ED80023F0847323F4803313600B4B0B4A5A605E
:100EE800094A094B1B6823F480231360064B002230
:100EF800DA6000F00DF8034B4FF000629A6000BF13
:100F080080BD00BF00ED00E0003802401030002432
:100F180080B483B000AF00237B6000233B60364A77
:100F2800354B1B6843F480331360334B1B6803F461
:100F380000333B607B6801337B603B68002B03D147
:100F48007B68B3F5A06FF0D12B4B1B6803F400331B
:100F5800002B02D001233B6001E000233B603B688B
:100F6800012B42D1244A244B1B6C43F08053136459
:100F7800224A224B1B6843F4404313601E4A1E4B0F
:100F88009B6893601C4A1C4B9B6843F40043936026
:100F9800194A194B9B6843F4A0539360164B184A9F
:100FA8005A60154A144B1B6843F08073136000BFE6
:100FB800114B1B6803F00073002BF9D0114B40F262
:100FC80005621A600C4A0C4B9B6823F0030393607C
:100FD800094A094B9B6843F00203936000BF064B24
:100FE8009B6803F00C03082BF9D100BF0C37BD46F2
:100FF8005DF8047B704700BF003802400070004075
:1010080008544007003C024070B50D4E0D4CA41B1F
:10101800A4100025A54209D10B4E0C4C00F018F87D
:10102800A41BA4100025A54205D170BD56F8253093
:1010380098470135EEE756F8253098470135F2E72D
:101048007010000870100008701000087410000874
:10105800F8B500BFF8BC08BC9E467047F8B500BF9D
:08106800F8BC08BC9E4670476D
:04107000AD010008C6
:0410740089010008E6
:10107800000002400004024000080240000C024048
:10108800001002400014024000180240001C0240F8
:10109800002002403C01010200003D010102000065
:1010A8000202010200070302010200070200040015
:1010B800080010004000800000010002020408102F
:1010C800001001400044004000480040004C00402F
:1010D800005000400014014001020000802500007B
:0410E8000000000004
:0400000508000DFDE5
:00000001FF
