:020000040800F2
:100000000000022085060008D7060008E506000863
:10001000EB060008F1060008F706000800000000E3
:10002000000000000000000000000000FD060008C5
:100030000B07000800000000190700082707000848
:10004000D5060008D5060008D5060008D506000824
:10005000D5060008D5060008D5060008D506000814
:10006000D5060008D5060008D5060008D506000804
:10007000D5060008D5060008D5060008D5060008F4
:10008000D5060008D5060008D5060008D5060008E4
:10009000D5060008D5060008D5060008D5060008D4
:1000A000D5060008D5060008D5060008D5060008C4
:1000B000D5060008D5060008D5060008D5060008B4
:1000C000D5060008D5060008D5060008D5060008A4
:1000D000D5060008D5060008D5060008D506000894
:1000E000D5060008D5060008D5060008D506000884
:1000F000D5060008D5060008D5060008D506000874
:10010000D5060008D5060008D5060008D506000863
:10011000D5060008D5060008D5060008D506000853
:10012000D5060008D5060008D5060008D506000843
:10013000D5060008D5060008D5060008D506000833
:10014000D5060008D5060008D5060008D506000823
:10015000D5060008D5060008D5060008D506000813
:10016000D5060008D5060008D5060008D506000803
:10017000D5060008D5060008D5060008D5060008F3
:08018000D5060008D5060008B1
:1001880010B5054C237833B9044B13B10448AFF3C9
:1001980000800123237010BD3C00002000000000F7
:1001A800E008000808B5034B1BB103490348AFF347
:1001B800008008BD0000000040000020E0080008A2
:1001C80080B483B000AF03460A46FB711346BB7187
:1001D8000A480A4B1B6BFA79012101FA02F2D24351
:1001E8001340B979FA7901FA02F21343036300BFA5
:1001F8000C37BD465DF8047B704700BF00380240ED
:1002080090B587B000AF0023FB750023BB750023B2
:100218007B750023FB75AAE1FA7D6F4913465B00E5
:1002280013445B000B441B781B09BB75FA7D6A49B4
:1002380013465B0013445B000B441B7803F00F0369
:100248007B7500233B61BB7D01211846FFF7B8FF92
:10025800BB7D624A52F82330FB60FA7D5E49134643
:100268005B0013445B000B4401331B78032B21D83C
:10027800FA7D594913465B0013445B000B44013374
:100288001B781A467B7D5B0002FA03F33B61FB682F
:100298001B687A7D032101FA02F2D2431A40FB68F7
:1002A8001A60FB681A683B691A43FB681A600023E6
:1002B8003B61BFE0FA7D484913465B0013445B008D
:1002C8000B4401331B78042B13D14549444BDB689D
:1002D8007A7D012000FA02F21343CB604049404B7B
:1002E8009B687A7D012000FA02F2D24313408B60AA
:1002F8003BE0FA7D384913465B0013445B000B442E
:1003080001331B78052B13D13549354B9B687A7D12
:10031800012000FA02F213438B603149304BDB684D
:100328007A7D012000FA02F2D2431340CB601CE030
:10033800FA7D294913465B0013445B000B440133E3
:100348001B78062B11D12649254B9B687A7D012005
:1003580000FA02F213438B602149214BDB687A7D56
:10036800012000FA02F21343CB607B7D9B08FB72ED
:100378007B7D03F00303BB72FB681A4A934237D0B4
:10038800FB68194A934225D0FB68184A93421FD04C
:10039800FB68154A934219D0FB68124A934213D05E
:1003A800FB68114A93420DD0FB680E4A934207D06E
:1003B800FB680D4A934201D107231AE0002318E095
:1003C800062316E0052314E0042312E0032310E0BB
:1003D80002230EE001230CE024000020000000208E
:1003E800003C0140000002400004024000080240B6
:1003F80000237B726248FB7A797ABA7A920001FA12
:1004080002F2023340F823205E4A5E4B5B6C43F4F1
:10041800804353645C485C4B1968FA7D5B4C134617
:100428005B0013445B0023441B781A460123934066
:100438000B43036000233B61FA7D544913465B007C
:1004480013445B000B4402331B781A467B7D5B0028
:1004580002FA03F33B61FB689B687A7D032101FA8A
:1004680002F2D2431A40FB689A60FB689A683B69BB
:100478001A43FB689A6000233B61FA7D434913469F
:100488005B0013445B000B4403331B781A467B7DE7
:100498005B0002FA03F33B61FB68DB687A7D0321AA
:1004A80001FA02F2D2431A40FB68DA60FB68DA68A4
:1004B8003B691A43FB68DA6000233B61FA7D3349E4
:1004C80013465B0013445B000B4404331B781A4645
:1004D8007B7D02FA03F33B61FB685B687A7D01214F
:1004E80001FA02F2D2431A40FB685A60FB685A6864
:1004F8003B691A43FB685A60FA7D244913465B003E
:1005080013445B000B4401331B78022B2CD17B7DF9
:10051800DB083B727B7D03F00703FB713A7A397A7B
:10052800FB68083153F82130F97989000F2000FA67
:1005380001F1C9431940FB68083243F82210397A9F
:10054800FA7D124813465B0013445B0003440533ED
:100558001B781A46FB799B0002FA03F31846FB68DE
:1005680001F1080243F82200FB7D0133FB75FB7D96
:10057800032B7FF651AE00BF1C37BD4690BD00BFB0
:100588000038014000380240003C014024000020AF
:1005980080B485B000AF03460A46FB711346BB71B1
:1005A8000023FB730023BB73FB791B09FB73FB79E7
:1005B80003F00F03BB73FB7B104A52F82330BB6078
:1005C800BB79012B09D1BB685B69BA7B012101FAB0
:1005D80002F21A43BB685A6109E0BB685B69BA7BDF
:1005E800012101FA02F2D2431A40BB685A6100BFE6
:1005F8001437BD465DF8047B704700BF000000203B
:1006080080B582B000AF00237B60FFF7F9FD0121C0
:100618003D20FFF7BDFF01213E20FFF7B9FF012173
:100628003C20FFF7B5FF01213F20FFF7B1FF002372
:100638007B6002E07B6801337B607B680E4A9342F3
:10064800F8DD00213D20FFF7A3FF00213E20FFF742
:100658009FFF00213C20FFF79BFF00213F20FFF771
:1006680097FF00237B6002E07B6801337B607B6837
:10067800014A9342F8DDCAE7FF083D00DFF834D0AD
:10068800002103E00C4B5B58435004310B480C4BE2
:1006980042189A42F6D30B4A02E0002342F8043B80
:1006A800094B9A42F9D300F041F800F0F1F8FFF74E
:1006B800A7FF704700000220000900080000002082
:1006C8003C0000203C00002058000020FEE780B4D9
:1006D80000AF00BFBD465DF8047B704780B400AF33
:1006E800FEE780B400AFFEE780B400AFFEE780B459
:1006F80000AFFEE780B400AF00BFBD465DF8047BE5
:10070800704780B400AF00BFBD465DF8047B7047FA
:1007180080B400AF00BFBD465DF8047B704780B46D
:1007280000AF00BFBD465DF8047B704780B500AFE1
:10073800164A164BD3F8883043F47003C2F8883051
:10074800134A134B1B6843F001031360104B00223C
:100758009A600F4A0E4B1B6823F0847323F480338E
:1007680013600B4B0B4A5A60094A094B1B6823F468
:1007780080231360064B0022DA6000F00DF8034B6B
:100788004FF000629A6000BF80BD00BF00ED00E03E
:10079800003802401030002480B483B000AF00233A
:1007A8007B6000233B60364A354B1B6843F480333B
:1007B8001360334B1B6803F400333B607B680133E1
:1007C8007B603B68002B03D17B68B3F5A06FF0D149
:1007D8002B4B1B6803F40033002B02D001233B6032
:1007E80001E000233B603B68012B42D1244A244BA3
:1007F8001B6C43F080531364224A224B1B6843F45A
:10080800404313601E4A1E4B9B6893601C4A1C4B56
:100818009B6843F400439360194A194B9B6843F45F
:10082800A0539360164B184A5A60154A144B1B681C
:1008380043F08073136000BF114B1B6803F0007313
:10084800002BF9D0114B40F205721A600C4A0C4B80
:100858009B6823F003039360094A094B9B6843F0A4
:100868000203936000BF064B9B6803F00C03082B40
:10087800F9D100BF0C37BD465DF8047B704700BF57
:10088800003802400070004019544007003C024004
:1008980070B50D4E0D4CA41BA4100025A54209D11E
:1008A8000B4E0C4C00F018F8A41BA4100025A54210
:1008B80005D170BD56F8253098470135EEE756F852
:1008C800253098470135F2E7F8080008F8080008CD
:1008D800F8080008FC080008F8B500BFF8BC08BC18
:1008E8009E467047F8B500BFF8BC08BC9E467047E6
:0408F800AD01000846
:0408FC008901000866
:10090000000002400004024000080240000C0240C7
:10091000001002400014024000180240001C024077
:10092000002002403D01010200003E0101020000E2
:0C0930003C01010200003F010102000038
:040000050800068564
:00000001FF
