:020000040800F2
:1000000000000220A1260008F326000801270008AE
:10001000072700080D27000813270008000000002C
:100020000000000000000000000000001927000888
:100030002727000800000000352700084327000894
:10004000F1260008F1260008F1260008F126000834
:10005000F1260008F1260008F1260008F126000824
:10006000F1260008F1260008F1260008F126000814
:10007000F1260008F1260008F1260008F126000804
:10008000F1260008F1260008F1260008F90A000808
:10009000910B0008F1260008F1260008F12600085F
:1000A000F1260008F1260008F1260008F1260008D4
:1000B000992B0008D12B0008012C0008F12600081C
:1000C000F1260008F1260008F1260008F1260008B4
:1000D000F12600080D2300080D220008D92300088E
:1000E000F1260008F1260008F1260008F126000894
:1000F000F1260008F1260008F1260008F126000884
:10010000F1260008F1260008F1260008F126000873
:10011000E1240008F1260008F1260008F126000875
:10012000F1260008F1260008F1260008F126000853
:10013000F1260008F1260008F1260008F126000843
:10014000F1260008F1260008F1260008F126000833
:10015000F1260008F1260008F1260008F126000823
:10016000F1260008F1260008F1260008F126000813
:10017000F1260008F1260008F1260008F126000803
:08018000F1260008F126000839
:1001880010B5054C237833B9044B13B10448AFF3C9
:1001980000800123237010BD200300200000000010
:1001A800F446000808B5034B1BB103490348AFF3F5
:1001B800008008BD0000000024030020F446000869
:1001C800034613F8012B002AFBD1181A013870478F
:1001D80081F0004102E000BF83F0004330B54FEAF0
:1001E80041044FEA430594EA050F08BF90EA020F5D
:1001F8001FBF54EA000C55EA020C7FEA645C7FEAF0
:10020800655C00F0E2804FEA5454D4EB5555B8BF12
:100218006D420CDD2C4480EA020281EA030382EA83
:10022800000083EA010180EA020281EA0303362D15
:1002380088BF30BD11F0004F4FEA01314FF4801CE8
:100248004CEA113102D0404261EB410113F0004FFA
:100258004FEA03334CEA133302D0524263EB4303B1
:1002680094EA050F00F0A780A4F10104D5F1200E4F
:100278000DDB02FA0EFC22FA05F2801841F10001AA
:1002880003FA0EF2801843FA05F359410EE0A5F17E
:1002980020050EF1200E012A03FA0EFC28BF4CF0AF
:1002A800020C43FA05F3C01851EBE37101F0004565
:1002B80007D54FF0000EDCF1000C7EEB00006EEB72
:1002C8000101B1F5801F1BD3B1F5001F0CD34908FC
:1002D8005FEA30004FEA3C0C04F101044FEA445253
:1002E80012F5800F80F09A80BCF1004F08BF5FEADA
:1002F800500C50F1000041EB045141EA050130BDBA
:100308005FEA4C0C404141EB010111F4801FA4F15C
:100318000104E9D191F0000F04BF01460020B1FAB1
:1003280081F308BF2033A3F10B03B3F120020CDAE9
:100338000C3208DD02F1140CC2F10C0201FA0CF0C7
:1003480021FA02F10CE002F11402D8BFC2F1200C2C
:1003580001FA02F120FA0CFCDCBF41EA0C019040E2
:10036800E41AA2BF01EB0451294330BD6FEA04042B
:100378001F3C1CDA0C340EDC04F11404C4F1200216
:1003880020FA04F001FA02F340EA030021FA04F328
:1003980045EA030130BDC4F10C04C4F1200220FA7F
:1003A80002F001FA04F340EA0300294630BD21FABD
:1003B80004F0294630BD94F0000F83F4801306BF83
:1003C80081F480110134013D4EE77FEA645C18BF77
:1003D8007FEA655C29D094EA050F08BF90EA020F0E
:1003E80005D054EA000C04BF1946104630BD91EA06
:1003F800030F1EBF0021002030BD5FEA545C05D109
:100408004000494128BF41F0004130BD14F5800447
:100418003CBF01F5801130BD01F0004545F0FE41BB
:1004280041F470014FF0000030BD7FEA645C1ABFF0
:10043800194610467FEA655C1CBF0B46024650EA27
:10044800013406BF52EA033591EA030F41F4002153
:1004580030BD00BF90F0000F04BF0021704730B5D9
:100468004FF4806404F132044FF000054FF00001AE
:1004780050E700BF90F0000F04BF0021704730B56F
:100488004FF4806404F1320410F0004548BF404244
:100498004FF000013EE700BF42004FEAE2014FEA99
:1004A80031014FEA02701FBF12F07F4393F07F4F74
:1004B80081F06051704792F0000F14BF93F07F4FA6
:1004C800704730B54FF4607401F0004521F00041E9
:1004D80020E700BF50EA010208BF704730B54FF06F
:1004E80000050AE050EA010208BF704730B511F074
:1004F800004502D5404261EB41014FF4806404F1AC
:1005080032045FEA915C3FF4DCAE4FF003025FEA2D
:10051800DC0C18BF03325FEADC0C18BF033202EBB5
:10052800DC02C2F1200300FA03FC20FA02F001FA0F
:1005380003FE40EA0E0021FA02F11444C1E600BFAE
:1005480070B54FF0FF0C4CF4E06C1CEA11541DBF61
:100558001CEA135594EA0C0F95EA0C0F00F0DEF82C
:100568002C4481EA030621EA4C5123EA4C5350EA11
:10057800013518BF52EA033541F4801143F4801362
:1005880038D0A0FB02CE4FF00005E1FB02E506F0F3
:100598000042E0FB03E54FF00006E1FB03569CF048
:1005A800000F18BF4EF0010EA4F1FF04B6F5007F4E
:1005B80064F5407404D25FEA4E0E6D4146EB0606C0
:1005C80042EAC62141EA55514FEAC52040EA5E5049
:1005D8004FEACE2EB4F1FD0C88BFBCF5E06F1ED8F3
:1005E800BEF1004F08BF5FEA500E50F1000041EB2A
:1005F800045170BD06F0004646EA010140EA0200D7
:1006080081EA0301B4EB5C04C2BFD4EB0C0541EAF8
:10061800045170BD41F480114FF0000E013C00F30D
:10062800AB8014F1360FDEBF002001F0004170BD31
:10063800C4F10004203C35DA0C341BDC04F114044A
:10064800C4F1200500FA05F320FA04F001FA05F2D6
:1006580040EA020001F0004221F0004110EBD370A3
:1006680021FA04F642EB06015EEA430E08BF20EACF
:10067800D37070BDC4F10C04C4F1200500FA04F372
:1006880020FA05F001FA04F240EA020001F0004104
:1006980010EBD37041F100015EEA430E08BF20EA77
:1006A800D37070BDC4F1200500FA05F24EEA020EBF
:1006B80020FA04F301FA05F243EA020321FA04F0EE
:1006C80001F0004121FA04F220EA020000EBD370A5
:1006D8005EEA430E08BF20EAD37070BD94F0000FA5
:1006E8000FD101F00046400041EB010111F4801FD9
:1006F80008BF013CF7D041EA060195F0000F18BF8A
:10070800704703F00046520043EB030313F4801FC5
:1007180008BF013DF7D043EA0603704794EA0C0F7F
:100728000CEA135518BF95EA0C0F0CD050EA410695
:1007380018BF52EA4306D1D181EA030101F0004112
:100748004FF0000070BD50EA410606BF104619463A
:1007580052EA430619D094EA0C0F02D150EA013646
:1007680013D195EA0C0F05D152EA03361CBF104687
:1007780019460AD181EA030101F0004141F0FE4126
:1007880041F470014FF0000070BD41F0FE4141F4AA
:10079800780170BD70B54FF0FF0C4CF4E06C1CEAAA
:1007A80011541DBF1CEA135594EA0C0F95EA0C0F5F
:1007B80000F0A7F8A4EB050481EA030E52EA03351A
:1007C8004FEA013100F088804FEA03334FF080553B
:1007D80045EA131343EA12634FEA022245EA111568
:1007E80045EA10654FEA00260EF000419D4208BF19
:1007F800964244F1FD0404F5407402D25B084FEAC6
:100808003202B61A65EB03055B084FEA32024FF471
:1008180080104FF4002CB6EB020E75EB030E22BFCE
:10082800B61A754640EA0C005B084FEA3202B6EB8E
:10083800020E75EB030E22BFB61A754640EA5C003D
:100848005B084FEA3202B6EB020E75EB030E22BFCD
:10085800B61A754640EA9C005B084FEA3202B6EBCE
:10086800020E75EB030E22BFB61A754640EADC008D
:1008780055EA060E18D04FEA051545EA16754FEAEF
:1008880006164FEAC30343EA52734FEAC2025FEA0D
:100898001C1CC0D111F4801F0BD141EA00014FF09C
:1008A80000004FF0004CB6E711F4801F04BF01436D
:1008B8000020B4F1FD0C88BFBCF5E06F3FF6AFAE89
:1008C800B5EB030C04BFB6EB020C5FEA500C50F119
:1008D800000041EB045170BD0EF0004E4EEA11319C
:1008E80014EB5C04C2BFD4EB0C0541EA045170BDA3
:1008F80041F480114FF0000E013C90E645EA060EE7
:100908008DE60CEA135594EA0C0F08BF95EA0C0F14
:100918003FF43BAF94EA0C0F0AD150EA01347FF45C
:1009280034AF95EA0C0F7FF425AF104619462CE733
:1009380095EA0C0F06D152EA03353FF4FDAE104696
:10094800194622E750EA410618BF52EA43067FF4E7
:10095800C5AE50EA41047FF40DAF52EA43057FF477
:10096800EBAE12E74FF0FF3C06E000BF4FF0010C82
:1009780002E000BF4FF0010C4DF804CD4FEA410CE6
:100988007FEA6C5C4FEA430C18BF7FEA6C5C1BD0B3
:1009980001B050EA410C0CBF52EA430C91EA030F34
:1009A80002BF90EA020F0020704710F1000F91EA91
:1009B800030F58BF994208BF90422CBFD8176FEA5F
:1009C800E37040F0010070474FEA410C7FEA6C5C2D
:1009D80002D150EA013C07D14FEA430C7FEA6C5C34
:1009E800D6D152EA033CD3D05DF8040B704700BF60
:1009F8008446104662468C461946634600E000BFAE
:100A080001B5FFF7B7FF002848BF10F1000F01BD7F
:100A18004DF808EDFFF7F4FF0CBF012000205DF84A
:100A280008FB00BF4DF808EDFFF7EAFF34BF0120CF
:100A380000205DF808FB00BF4DF808EDFFF7E0FF68
:100A480094BF012000205DF808FB00BF4DF808EDB9
:100A5800FFF7CEFF94BF012000205DF808FB00BF20
:100A68004DF808EDFFF7C4FF34BF012000205DF802
:100A780008FB00BF4FEA410C7FEA6C5C02D150EAE8
:100A8800013C0AD14FEA430C7FEA6C5C02D152EA7E
:100A9800033C02D14FF0000070474FF0010070474F
:100AA8004FEA410212F5001215D211D56FF478738E
:100AB800B3EB625212D94FEAC12343F0004343EA31
:100AC800505311F0004F23FA02F018BF404270470C
:100AD8004FF00000704750EA013005D111F0004096
:100AE80008BF6FF0004070474FF00000704700BF2C
:100AF80080B500AF224B9B6803F00103002B0ED09A
:100B08001F4A1F4B9B6843F0010393601C4A1C4B10
:100B18005B6923F0010353611A4B01221A70184BC9
:100B28009B6803F48073002B0ED0154A144B9B6806
:100B380043F480739360124A114B5B6923F00103FD
:100B48005361104B01225A700D4B9B6803F480339C
:100B5800002B0ED00A4A0A4B9B6843F480339360FB
:100B6800074A074B5B6923F001035361054B0122D8
:100B78009A7001213F2000F00BFB00BF80BD00BF31
:100B8800006400403C03002080B500AF054BDB68E3
:100B980003F00303002B02D0034B1B68984700BFE8
:100BA80080BD00BF00640040A404002080B582B06E
:100BB80000AF234B1B78042B28D0052B2ED0032BFA
:100BC80000D033E000237B600BE07B6801331C4AD4
:100BD800D15C1C4A7B6813440A461A707B6801334F
:100BE8007B607B68032BF0DD04237B6007E0154AFC
:100BF8007B68134400221A707B6801337B607B6832
:100C0800072BF4DD0F4800F05BFB0FE00C4B5B7823
:100C1800FB70FB78184600F071FB07E0084B5B7827
:100C2800FB70FB78184600F03BFB00BF0822044924
:100C3800032001F027FA00BF0837BD4680BD00BF7A
:100C4800880400209004002080B582B000AF3B46A5
:100C580000221A605A6001233B703B46082219465D
:100C6800032001F0C1F900BF0837BD4680BD000070
:100C780080B500AF0F4B1B78022B0AD0032B0ED088
:100C8800012B00D00FE00B4B5B78184600F0B8FA48
:100C980009E0084B5B78184600F0C8FA03E00648FC
:100CA80000F0DAFA00BF08220249012001F0EAF94F
:100CB80000BF80BD740400207504002080B582B098
:100CC80000AF0346FB71FB791E4AD35C002B17D09B
:100CD800012B00D032E0FB791B4AD35C0021184677
:100CE80000F056FAFB79194AD35C012B25D1FB7920
:100CF800164A0021D154FB79124A0021D1541CE034
:100D0800FB79114AD35C0121184600F041FAFB79BE
:100D18000F4AD35C012B07D8FB790D4AD25C01320C
:100D2800D1B20B4AD15409E0FB79094A0021D154C8
:100D3800FB79044A0121D15400E000BF00BF083705
:100D4800BD4680BD9C040020104700089804002080
:100D58004003002080B400AF034B01221A7000BF8B
:100D6800BD465DF8047B70479804002080B400AF4E
:100D7800034B01225A7000BFBD465DF8047B7047E3
:100D88009804002080B400AF034B01229A7000BF82
:100D9800BD465DF8047B70479804002080B500AF1D
:100DA8000020FFF78BFF0120FFF788FF0220FFF7E5
:100DB80085FF00BF80BD000080B483B000AF03464C
:100DC8000A46FB711346BB710A480A4B1B6BFA793A
:100DD800012101FA02F2D2431340B979FA7901FAF2
:100DE80002F21343036300BF0C37BD465DF8047B72
:100DF800704700BF0038024090B585B000AF0023AF
:100E0800FB730023BB7300237B730023FB73AFE1E9
:100E1800FA7B6F4913465B0013445B000B441B7855
:100E28001B09BB73FA7B6A4913465B0013445B00DA
:100E38000B441B7803F00F037B730023BB60BB7B61
:100E480001211846FFF7B8FFBB7B624A52F82330EE
:100E58007B60FA7B5E4913465B0013445B000B44DE
:100E680001331B78032B21D87B681B68BB607B7B15
:100E78005B00032202FA03F3DB43BA681340BB604A
:100E8800FA7B534913465B0013445B000B44013360
:100E98001B7803F003027B7B5B0002FA03F3BA685A
:100EA8001343BB607B68BA681A60BFE0FA7B4849A5
:100EB80013465B0013445B000B4401331B78042B7F
:100EC80013D14549444BDB687A7B012000FA02F2D2
:100ED8001343CB604049404B9B687A7B012000FA62
:100EE80002F2D24313408B603BE0FA7B3849134649
:100EF8005B0013445B000B4401331B78052B13D1B3
:100F08003549354B9B687A7B012000FA02F213437E
:100F18008B603149304BDB687A7B012000FA02F2A2
:100F2800D2431340CB601CE0FA7B294913465B008F
:100F380013445B000B4401331B78062B11D126495F
:100F4800254B9B687A7B012000FA02F213438B60E1
:100F58002149214BDB687A7B012000FA02F2134316
:100F6800CB607B7B9B08FB707B7B03F00303BB7030
:100F78007B681A4A934237D07B68194A934225D036
:100F88007B68184A93421FD07B68154A934219D050
:100F98007B68124A934213D07B68114A93420DD062
:100FA8007B680E4A934207D07B680D4A934201D171
:100FB80007231AE0002318E0062316E0052314E0AF
:100FC800042312E0032310E002230EE001230CE0C7
:100FD8003800002014000020003C014000000240BE
:100FE800000402400008024000237B706448FB783C
:100FF8007978BA78920001FA02F2023340F8232095
:10100800604A604B5B6C43F4804353645E485E4BBC
:101018001968FA7B5D4C13465B0013445B0023445C
:101028001B781A46012393400B4303600023BB60DF
:101038007B689B68BB607B7B5B00032202FA03F33F
:10104800DB43BA681340BB60FA7B504913465B0028
:1010580013445B000B4402331B7803F003027B7BD1
:101068005B0002FA03F3BA681343BB607B68BA6893
:101078009A607B68DB68BB607B7B5B00032202FABB
:1010880003F3DB43BA681340BB60FA7B3F4913465E
:101098005B0013445B000B4403331B7803F003022B
:1010A8007B7B5B0002FA03F3BA681343BB607B687F
:1010B800BA68DA607B685B68BB607B7B012202FAF6
:1010C80003F3DB43BA681340BB60FA7B2F4913462E
:1010D8005B0013445B000B4404331B7803F00102EC
:1010E8007B7B02FA03F3BA681343BB607B68BA6878
:1010F8005A60FA7B254913465B0013445B000B4496
:1011080001331B78022B30D17B7BDB08DBB21A461C
:101118007B68083253F82230BB607B7B03F00703FF
:101128009B000F2202FA03F3DB43BA681340BB604B
:10113800FA7B164913465B0013445B000B440533E6
:101148001B781A467B7B03F007039B0002FA03F324
:101158001A46BB681343BB607B7BDB08DBB21A46CD
:101168007B680832B96843F82210FB7B0133FB73B4
:10117800FB7B082B7FF64CAE00BF1437BD4690BDF5
:101188000038014000380240003C0140380000208F
:1011980080B485B000AF03460A46FB711346BB71A5
:1011A8000023FB730023BB73FB791B09FB73FB79DB
:1011B80003F00F03BB73FB7B104A52F82330BB606C
:1011C800BB79012B09D1BB685B69BA7B012101FAA4
:1011D80002F21A43BB685A6109E0BB685B69BA7BD3
:1011E800012101FA02F2D2431A40BB685A6100BFDA
:1011F8001437BD465DF8047B704700BF140000201B
:1012080080B483B000AF0346FB71064B01221A700D
:10121800054AFB79137000BF0C37BD465DF8047BA7
:10122800704700BFA20000204703002080B483B0AD
:1012380000AF0346FB71064B01221A70054AFB7981
:10124800137000BF0C37BD465DF8047B704700BFC4
:10125800A00400204603002080B485B000AF786069
:101268000D4B01221A700023FB73FB7BFA7B796814
:101278000A441178094AD154FB7B0133FB73FB7B89
:101288007A6813441B78002BEFD100BF1437BD4692
:101298005DF8047B704700BFA104002070000020A7
:1012A80080B483B000AF0346FB71044AFB79137026
:1012B80000BF0C37BD465DF8047B70474C03002027
:1012C80080B485B000AF78600023FB600BE0FB685A
:1012D8007A6813441978084AFB6813440A461A7056
:1012E800FB680133FB60FB68032BF0DD00BF14379C
:1012F800BD465DF8047B70474803002080B483B086
:1013080000AF0346FB71044AFB79137000BF0C372A
:10131800BD465DF8047B70474503002080B400AFEC
:101328000E4B1B78002B0FD10C4B5B78002B0BD18D
:101338000A4B9B78002B07D1084BDB78002B03D195
:10134800074B00221A7002E0054B01221A70044B69
:101358001B781846BD465DF8047B7047480300209B
:101368004303002080B500AF954B1B78072B00F294
:10137800248101A252F823F0A1130008A913000840
:10138800DF1300084F140008BF1400080B150008ED
:10139800491500088F150008894B01221A700CE1C5
:1013A800FFF7BCFF03461A46864B1A70854B1B781D
:1013B800002B03D1824B01221A70FEE00122032187
:1013C800022000F025FAFFF7D1FCFFF7C3FC7C4BA5
:1013D80002221A70F1E0FFF7A1FF03461A46794B83
:1013E8001A70784B1B78002B08D1002203210220A9
:1013F80000F00EFA724B01221A70D7E0724B1B787C
:10140800002B0BD102220321022000F001FA6F4BBE
:101418001B78012B07D1FFF717FC04E000220321FA
:10142800022000F0F5F9664B03221A70674B1B780F
:10143800012B40F0BB80644B1B78002B40F0B6803A
:10144800FFF702FCB2E0FFF769FF03461A465D4B5F
:101458001A705C4B1B78002B08D100220321022054
:1014680000F0D6F9564B01221A7009E0574B1B7849
:10147800012B05D1544B1B78002B01D1FFF7E4FB5E
:10148800534B1B78012B03D1524B1B78012B04D0F3
:10149800514B1B78272B40F28B804D4B00221A7042
:1014A80003220321022000F0B3F9FFF76BFC444B41
:1014B80004221A707CE0FFF731FF03461A46414BBD
:1014C8001A70404B1B78002B08D100220321022000
:1014D80000F09EF93A4B01221A706BE03F4B012253
:1014E8001A703E4B1B78012B64D13C4B00221A70BA
:1014F80006220321022000F08BF9314B05221A70D5
:1015080058E0FFF70BFF03461A462E4B1A702D4B77
:101518001B78002B08D100220321022000F078F963
:10152800274B01221A7048E0322240F211112C4850
:1015380000F0D0F900F0C2F9214B06221A703CE005
:10154800FFF7ECFE03461A461E4B1A701D4B1B781C
:10155800002B08D100220321022000F059F9184B72
:1015680001221A7028E01F4B1B78012B24D11D4B38
:1015780000221A7006220321022000F049F9104BBC
:1015880007221A7018E0FFF7C9FE03461A460D4BEA
:101598001A700C4B1B78002B0FD10022032102205C
:1015A80000F036F9064B01221A7006E000BF04E08D
:1015B80000BF02E000BF00E000BF00BF80BD00BF69
:1015C8004403002043030020470300204503002074
:1015D800A0040020460300204C030020A1040020A2
:1015E800700000204D03002080B584B000AF254B6B
:1015F8009B689B08DBB203F003037B727B7A002BAA
:1016080002D1214BFB600BE07B7A012B02D11F4BEF
:10161800FB6005E07B7A022B02D100F08DF8F860C0
:10162800184B9B681B09DBB203F00F033B723B7A34
:10163800072B02D80123FB7205E03B7A083B144ACA
:1016480032F81330FB720F4B9B689B0ADBB203F036
:1016580007033B723B7A032B02D80123BB7204E0D9
:101668003B7A043B0B4AD35CBB72FB7AFA68B2FB49
:10167800F3F2BB7AB2FBF3F37B607B681846103752
:10168800BD4680BD003802400024F40000127A00F4
:10169800A4000020B400002080B485B000AF00236F
:1016A800FB60204B9B689B08DBB203F003037B7253
:1016B8007B7A002B02D11C4BFB6001E01B4BFB60CB
:1016C800184B9B681B0903F00F037B607B68072B93
:1016D80002D80123FB7205E07B68083B144A32F804
:1016E8001330FB720F4B9B685B0B03F007037B60A7
:1016F8007B68032B02D80123BB7204E07B68043BA0
:101708000C4AD35CBB72FB7AFA68B2FBF3F2BB7A81
:10171800B2FBF3F33B603B6818461437BD465DF8EF
:10172800047B7047003802400024F40000127A005D
:10173800A4000020B400002080B487B000AF0023CC
:101748003B610023FB6000237B610223BB60002315
:101758007B6002233B601C4B5B689B0D03F001031D
:101768007B60194B5B6803F03F033B607B68002B91
:101778000CD0164A3B68B2FBF3F3134A526892093D
:10178800C2F3080202FB03F37B610BE0104A3B68DB
:10179800B2FBF3F30C4A52689209C2F3080202FB47
:1017A80003F37B61084B5B681B0C03F003030133F5
:1017B8005B00BB607A69BB68B2FBF3F318461C3761
:1017C800BD465DF8047B70470038024000127A007D
:1017D8000024F40080B400AF034B01221A7000BF4C
:1017E800BD465DF8047B70474E03002080B400AF0F
:1017F800054B01221A70054B01221A7000BFBD4625
:101808005DF8047B704700BFE20300204F0300200F
:1018180080B485B000AF0346FB710B46BB8013460E
:101828007B800123FB731E4B1B78002B2FD1FB7988
:10183800012B0DD0022B15D0002B1ED1194ABB88C5
:101848001380194A7B881380184B00221A7014E001
:10185800144ABB881380144A7B881380134B0122D7
:101868001A700AE0BB88DAB2114B1A700E4A7B88EC
:1018780013800E4B02221A7000BF0E4B01221A7001
:10188800074B01221A700C4B01221A7001E0002349
:10189800FB73FB7B18461437BD465DF8047B704725
:1018A8005003002052030020540300205603002058
:1018B8005103002058030020E303002080B500AF47
:1018C80009220349022000F0DDFB0123184680BDF0
:1018D800D803002080B483B000AF78600B467B80CB
:1018E80013467B700F4B1B78002B15D10E4A7B8853
:1018F80013800E4A7B6813607B789AB20C4B1A806F
:101908000C4B01221A700C4B01221A70054B012254
:101918001A700A4B01221A7000BF0C37BD465DF8D9
:10192800047B70475003002052030020D40300209A
:101938006C0300205603002058030020E303002016
:1019480080B582B000AF644B1B78012B16D0032BF7
:1019580000F0AD80002B00D0BAE0604B1B78012B63
:1019680040F0B3805D4B00221A705D4B1B78012B51
:1019780040F0AB80584B01221A70A6E0594B1B78F7
:10198800012B2ED0022B6CD0002B40F08C80564BB4
:101998005A221A70544BA5225A70534B05229A703A
:1019A800514B8222DA70514B1B881B0A9BB2DAB268
:1019B8004D4B1A714D4B1B88DAB24B4B5A714C4B3D
:1019C8001B881B0A9BB2DAB2474B9A71484B1B889B
:1019D800DAB2454BDA7108224349022000F004FBD1
:1019E80061E0444B5A221A70424BA5225A70424B6E
:1019F8001B88DBB20333DAB23E4B9A703D4B82222E
:101A0800DA703A4B1B881B0A9BB2DAB2394B1A714F
:101A1800364B1B88DAB2374B5A710023FB710BE047
:101A2800FB790633354A1168FA790A441178314A44
:101A3800D154FB790133FB71FB799AB22E4B1B8889
:101A48009A42EDD32C4B1B8806339BB21A46294980
:101A5800022000F0C9FA032203210220FFF7D8FE72
:101A680021E0274B5A221A70254BA5225A70244B85
:101A780004229A70224B8022DA70224B1A78204B6B
:101A88001A711B4B1B881B0A9BB2DAB21C4B5A718A
:101A9800174B1B88DAB21A4B9A7107221849022091
:101AA80000F0A2FA00BF0C4B03221A7010E0164B8C
:101AB8001B78012B0BD1144B00221A70134B0022F8
:101AC8001A70054B00221A7001E000BF00E000BF49
:101AD80000BF0837BD4680BD5703002058030020CB
:101AE800E3030020560300205C030020520300207B
:101AF80054030020700300206C030020D40300204E
:101B080064030020510300204E03002050030020EE
:101B180080B582B000AF264B1B78022B14D0042B63
:101B280034D0002B00D03FE0224B1B78002B38D05C
:101B3800214B1B785A2B34D11F4B1B78A52B30D146
:101B48001B4B02221A702CE01C4B03221A701A4BF2
:101B58001B791B021AB2184B5B791BB213431BB2D9
:101B68009AB2174B1A800023FB7106E0FB79124AE0
:101B78000021D154FB790133FB71FB79082BF5D98E
:101B88000C4B00221A70FFF799FE0DE00D4B1B78E5
:101B9800012B08D10B4B00221A70084B00221A7037
:101BA80001E000BF00E000BF00BF0837BD4680BDB0
:101BB800E1030020E2030020D8030020570300209F
:101BC800000000204F03002080B485B000AF03461A
:101BD8000A46FB711346BB71FB79094A52F8233058
:101BE800FB60FB68DB6823F40053BA7952031A439D
:101BF800FB68DA6000BF1437BD465DF8047B7047A8
:101C0800B800002080B483B000AF03460A46FB71D9
:101C18001346BB71FB79002B02D0052B12D021E0B3
:101C28001C481C4B5B6CFA790432012101FA02F260
:101C3800D2431340B979FA79043201FA02F2134314
:101C4800436420E01348134B5B6CFA79012101FAD5
:101C580002F2D2431340B979FA7901FA02F2134336
:101C6800436410E00B480B4B1B6CFA7910320121CE
:101C780001FA02F2D2431340B979FA79103201FA23
:101C880002F21343036400BF0C37BD465DF8047BC2
:101C9800704700BF0038024080B485B000AF0346EB
:101CA8003960FB71FB790A4A52F82330FB60FB6804
:101CB8001B68DAB201213B6801FA03F3DBB2134077
:101CC800DBB218461437BD465DF8047B704700BF89
:101CD800B800002080B588B000AF03463960FB71BA
:101CE800FB79364A52F823303B610023FB603B699D
:101CF800334A934203D03B69324A934204D1FFF7F7
:101D0800CBFC0346FB6103E0FFF76EFC0346FB6177
:101D18003B69DB6803F40043002B0BD0FA691346D8
:101D28009B0013449A001A443B685B00B2FBF3F330
:101D3800BB610AE0FA6913469B0013449A001A44EF
:101D48003B689B00B2FBF3F3BB61BB691E4AA2FB75
:101D580003235B09BB60BB681B01FA681343FB6084
:101D6800BB68642202FB03F3BA69D31A7B613B693F
:101D7800DB6803F40043002B0AD07B69DB003233B5
:101D8800114AA2FB03235B0903F007037B6109E007
:101D98007B691B0132330C4AA2FB03235B0903F066
:101DA8000F037B61FA687B691343FB603B69FA6840
:101DB8009A6000BF2037BD4680BD00BFB800002034
:101DC80000100140001401401F85EB5180B584B01C
:101DD80000AF0023FB60FA7A7F4913469B00134447
:101DE8009B000B441B781A467C4B53F822307B60CF
:101DF8000023FB72E7E0FA7A774913469B00134405
:101E08009B000B441B781A46744B53F822307B60B6
:101E1800FA7A714913469B0013449B000B441B78C4
:101E280001211846FFF7EEFEFA7A6B4913469B002C
:101E380013449B000B4401331B78012B04D0022B65
:101E48000CD0002B05D00EE0FB6843F00403FB60C8
:101E580009E0FB6843F00803FB6004E0FB6843F01B
:101E68000C03FB6000BFFA7A5B4913469B001344DE
:101E78009B000B4409331B781B031A46FB6813436A
:101E8800FB60FA7A544913469B0013449B000B44A9
:101E98000A331B78012B02D0022B05D00DE0FB681A
:101EA80043F48063FB6008E0FB6843F48063FB60F5
:101EB800FB6843F40073FB6000BF7B68FA68DA6074
:101EC800FA7A454913469B0013449B000B441B7840
:101ED80001211846FFF778FE0023FB60FA7A3E4995
:101EE80013469B0013449B000B4408331B781B03C9
:101EF8001A46FB681343FB607B68FA681A61002383
:101F0800FB60FA7A344913469B0013449B000B4448
:101F18000B331B78022B08D0032B0BD0012B0ED1CF
:101F2800FB6843F40073FB6009E0FB6843F48073CB
:101F3800FB6004E0FB6843F44073FB6000BF7B6810
:101F4800FA685A61FA7A244913469B0013449B00A5
:101F58000B441878FA7A204913469B0013449B00D7
:101F68000B4404331B681946FFF7B4FEFA7A1A4982
:101F780013469B0013449B000B441B781846FA7ABF
:101F8800154913469B0013449B000B440C331B68F4
:101F9800134A42F82030FA7A0F4913469B0013443B
:101FA8009B000B441B781846FA7A0B4913469B0092
:101FB80013449B000B4410331B680A4A42F8203034
:101FC800FB7A0133FB72FB7A022B7FF614AF00BF5A
:101FD8001037BD4680BD00BFD0000020B8000020EB
:101FE800BC040020A404002080B584B000AF0346E0
:101FF8003960FB711346BB800023FB73FA792049D3
:1020080013465B0013449B000B440A331B78DBB276
:10201800002B2DD1FA791A4913465B0013449B0013
:102028000B4404333A681A60FA79154913465B0081
:1020380013449B000B44BA881A80FA791049134656
:102048005B0013449B000B44083300221A80FA7982
:102058000B4913465B0013449B000B440A330122CF
:102068001A70FB7901220721184600F061F801E097
:102078000123FB73FB7B18461037BD4680BD00BFAC
:10208800E403002080B485B000AF03463960FB71DB
:102098001346BB80FB79244A52F82330BB60BB68E7
:1020A800DB6843F00402BB68DA600023FB73FA794B
:1020B8001E4913465B0013449B000B440A331B78EC
:1020C800DBB2002B27D1FA79184913465B00134479
:1020D8009B000B4404333A681A60FA791349134693
:1020E8005B0013449B000B44BA881A80FA790F49A5
:1020F80013465B0013449B000B44083300221A80EC
:10210800FA790A4913465B0013449B000B440A33CF
:1021180001221A7001E00123FB73FB7B1846143778
:10212800BD465DF8047B7047B80000202C040020F1
:1021380080B485B000AF0346FB710B46BB711346F4
:102148007B71FB79124A52F82330FB607B79002BB4
:102158000CD0012B00D014E0FB68DB68BA790121B0
:1021680001FA02F21A43FB68DA600AE0FB68DB68EE
:10217800BA79012101FA02F2D2431A40FB68DA6007
:1021880000BF00BF1437BD465DF8047B704700BF31
:10219800B800002080B485B000AF03460A46FB7142
:1021A8001346BB710023FB730023BB73FB795B09E8
:1021B800FB73FB7903F01F03BB73BB79002B0ED0B5
:1021C800012B00D015E0FB7B9B0003F1604303F576
:1021D8006143BA7B012101FA02F21A6009E0FB7B34
:1021E8009A00074B1344BA7B012101FA02F21A60E4
:1021F80000BF00BF1437BD465DF8047B704700BFC1
:1022080080E100E080B582B000AF384B1B7D1A46F4
:10221800374B53F822307B6005210120FFF73CFD46
:102228000346002B2FD0334B1B69324A928A92B255
:1022380013442F4A52685268D2B21A707B681B68DE
:1022480023F020027B681A602A4B9B8A9BB20133D9
:102258009AB2284B9A82274B9B8A9AB2254B9B8924
:102268009BB29A423ED1234B00229A75214B002201
:102278009A827B68DB6823F004027B68DA601E4B75
:102288005B6898472EE007210120FFF705FD03460C
:10229800002B27D0194B9B8A9AB2184B9B899BB26B
:1022A8009A4211D2124B5B68144A12691349898AFF
:1022B80089B20A4412785A60104B9B8A9BB2013348
:1022C8009AB20E4B9A820DE0002207210120FFF7F7
:1022D8002FFF0A4B00229A82084B00229A75084B5E
:1022E8005B68984700BF0837BD4680BDD000002016
:1022F800B80000202C040020A4040020E4030020DF
:10230800BC04002080B500AF05210020FFF7C4FC05
:102318000346012B23D0294B5B68284A128992B2C5
:102328001344274A12685268D2B21A70234B1B8989
:102338009BB21A46214B1B889BB2013B9A4207DA93
:102348001E4B1B899BB201339AB21C4B1A8132E097
:102358001A4B00229A721B4B1B6898472BE00721E7
:102368000020FFF799FC0346002B24D0164B1B894D
:102378009AB2154B1B889BB29A4211D2104B1B681C
:10238800114A52681049098989B20A4412785A6078
:102398000D4B1B899BB201339AB20B4B1A810AE091
:1023A800002207210020FFF7C3FE074B00229A7284
:1023B800064B1B68984700BF80BD00BF2C04002057
:1023C800B8000020A4040020E4030020BC0400207E
:1023D80080B582B000AF3A4B93F828301A46394B93
:1023E80053F822307B6005210220FFF755FC034695
:1023F800002B30D0344BDB69334A128C92B2134431
:10240800304A92685268D2B21A707B681B6823F00F
:1024180020027B681A602C4B1B8C9BB201339AB24A
:10242800294B1A84284B1B8C9AB2274B1B8B9BB2C7
:102438009A4240D1244B002283F82220224B0022CA
:102448001A847B68DB6823F004027B68DA601F4B20
:102458009B6898472FE007210220FFF71DFC0346E1
:10246800002B28D01A4B1B8C9AB2194B1B8B9BB292
:102478009A4211D2134B9B68154AD2691449098CA8
:1024880089B20A4412785A60114B1B8C9BB20133F3
:102498009AB20F4B1A840EE0002207210220FFF7A0
:1024A80047FE0B4B00221A84094B002283F8222096
:1024B800084B9B68984700BF0837BD4680BD00BFE2
:1024C800D0000020B80000202C040020A404002024
:1024D800E4030020BC04002080B582B000AF3A4B72
:1024E80093F83C301A46394B53F822307B6005216B
:1024F8000320FFF7D1FB0346002B30D0344B9B6AF7
:10250800334A928D92B21344304AD2685268D2B29A
:102518001A707B681B6823F020027B681A602C4BBA
:102528009B8D9BB201339AB2294B9A85284B9B8D80
:102538009AB2274B9B8C9BB29A4240D1244B0022E3
:1025480083F82E20224B00229A857B68DB6823F0D3
:1025580004027B68DA601F4BDB6898472FE007218D
:102568000320FFF799FB0346002B28D01A4B9B8DBD
:102578009AB2194B9B8C9BB29A4211D2134BDB68CF
:10258800154A926A1449898D89B20A4412785A60A8
:10259800114B9B8D9BB201339AB20F4B9A850EE07B
:1025A800002207210320FFF7C3FD0B4B00229A8569
:1025B800094B002283F82E20084BDB68984700BFA0
:1025C8000837BD4680BD00BFD0000020B8000020FD
:1025D8002C040020A4040020E4030020BC040020F4
:1025E80080B400AF00BFBD465DF8047B70470000B3
:1025F80080B500AFFEF700FCFFF7E8FB01220521DC
:102608000120FFF795FD012205210220FFF790FD2B
:10261800012205210320FFF78BFD01212620FFF76A
:10262800B9FD01212720FFF7B5FD01213420FFF76F
:10263800B1FD082215490120FFF724FD082214499D
:102648000320FFF71FFD042212490120FFF7CCFCED
:1026580000F08EF901211D2000F062FA01211E20F0
:1026680000F05EFA01220021012000F01DFA01228B
:102678000021022000F018FA0121012000F0EAF9F7
:102688000121022000F0E6F9FEE700BF74040020F3
:10269800880400200C010020DFF834D0002103E07A
:1026A8000C4B5B58435004310B480C4B42189A4270
:1026B800F6D30B4A02E0002342F8043B094B9A4246
:1026C800F9D300F061F800F0AFFAFFF791FF704717
:1026D80000000220484900080000002020030020D4
:1026E80020030020D8040020FEE780B400AF00BF1C
:1026F800BD465DF8047B704780B400AFFEE780B448
:1027080000AFFEE780B400AFFEE780B400AFFEE79D
:1027180080B400AF00BFBD465DF8047B704780B44D
:1027280000AF00BFBD465DF8047B704780B400AFC2
:1027380000BFBD465DF8047B704780B400AF00BFA2
:10274800BD465DF8047B704780B485B000AF786003
:102758000B4B1B68002B02D1094B0A4A1A60084B25
:102768001B68FB60064B1A687B681344044A1360B5
:10277800FB6818461437BD465DF8047B704700BFF8
:102788007C040020D804002080B500AF164A164B00
:10279800D3F8883043F47003C2F88830134A134BD7
:1027A8001B6843F001031360104B00229A600F4A24
:1027B8000E4B1B6823F0847323F4803313600B4B98
:1027C8000B4A5A60094A094B1B6823F4802313609B
:1027D800064B0022DA6000F00DF8034B4FF0006260
:1027E8009A6000BF80BD00BF00ED00E000380240E5
:1027F8001030002480B483B000AF00237B60002336
:102808003B60364A354B1B6843F480331360334BC7
:102818001B6803F400333B607B6801337B603B68D3
:10282800002B03D17B68B3F5A06FF0D12B4B1B684D
:1028380003F40033002B02D001233B6001E00023A6
:102848003B603B68012B42D1244A244B1B6C43F06C
:1028580080531364224A224B1B6843F4404313609D
:102868001E4A1E4B9B6893601C4A1C4B9B6843F492
:1028780000439360194A194B9B6843F4A053936033
:10288800164B184A5A60154A144B1B6843F080735C
:10289800136000BF114B1B6803F00073002BF9D0C5
:1028A800114B40F205621A600C4A0C4B9B6823F0EE
:1028B80003039360094A094B9B6843F00203936042
:1028C80000BF064B9B6803F00C03082BF9D100BF2F
:1028D8000C37BD465DF8047B704700BF00380240E6
:1028E8000070004008544007003C024080B483B0A8
:1028F80000AF03460A46FB711346BB710A480A4BF0
:102908001B6CFA79012101FA02F2D2431340B9791A
:10291800FA7901FA02F21343036400BF0C37BD468B
:102928005DF8047B704700BF0038024080B485B072
:1029380000AF03463960FB71FB790C4A52F823302B
:10294800FB60FB681B8A9BB2194601223B6802FAAE
:1029580003F301EA03023B6842FA03F3DBB21846C9
:102968001437BD465DF8047B704700BF1001002096
:1029780080B584B000AF0023BB600023FB73002345
:102988007B600023FB7359E0FB7B304A1B01134437
:102998001B7801211846FFF7A9FFFB7B2B4A1B0177
:1029A80013441B781A462A4B53F822303B60FB7BB2
:1029B800264A1B01134402331A883B681A85FB7B9D
:1029C800224A1B01134404331B881B017B603B68AC
:1029D8001B889BB223F070039AB23B681A803B684D
:1029E8001B889AB27B689BB213439AB23B681A80E1
:1029F80000237B60FB7B154A1B01134408331A68CC
:102A08003B68DA62FB7B114A1B0113440C331B88B9
:102A18001B027B603B681B889BB223F440739AB20D
:102A28003B681A803B681B889AB27B689BB2134349
:102A38009AB23B681A80FB7B0133FB73FB7B022B4A
:102A4800A2D900BF1037BD4680BD00BF20010020BD
:102A58001001002080B485B000AF03460A46FB7120
:102A68001346BB71FB790F4A52F82330FB60BB79E0
:102A7800012B08D1FB681B889BB243F001039AB273
:102A8800FB681A8007E0FB681B889BB223F00103F0
:102A98009AB2FB681A8000BF1437BD465DF8047B04
:102AA800704700BF1001002080B485B000AF034616
:102AB800FB710B46BB7113467B71FB79174A52F8C1
:102AC8002330FB607B79002B11D0012B00D01FE055
:102AD800FB689B899BB21AB2BB79012101FA03F307
:102AE8001BB213431BB29AB2FB689A8110E0FB68D1
:102AF8009B899BB21AB2BB79012101FA03F31BB27D
:102B0800DB431BB213401BB29AB2FB689A8100BF29
:102B180000BF1437BD465DF8047B704710010020E4
:102B280080B485B000AF03460A46FB711346BB71FB
:102B38000023FB730023BB73FB795B09FB73FB79F1
:102B480003F01F03BB73BB79002B0ED0012B00D001
:102B580015E0FB7B9B0003F1604303F56143BA7BFF
:102B6800012101FA02F21A6009E0FB7B9A00074B87
:102B78001344BA7B012101FA02F21A6000BF00BFB8
:102B88001437BD465DF8047B704700BF80E100E064
:102B980080B582B000AF0B4B1B687B600021002022
:102BA800FFF7C4FE0346012B07D17B681B8A9BB243
:102BB80023F001039AB27B681A8200BF0837BD462A
:102BC80080BD00BF1001002080B582B000AF094B66
:102BD8005B687B60FEF7B4FEFEF79AFF7B681B8A92
:102BE8009BB223F001039AB27B681A8200BF0837B0
:102BF800BD4680BD1001002080B582B000AF094BF2
:102C08005B687B60FEF7AEFBFEF7C8F87B681B8A43
:102C18009BB223F001039AB27B681A8200BF08377F
:102C2800BD4680BD1001002070B50D4E0D4CA41B93
:102C3800A4100025A54209D10B4E0C4C01F056FDFD
:102C4800A41BA4100025A54205D170BD56F8253057
:102C580098470135EEE756F8253098470135F2E7F1
:102C68004049000840490008404900084449000814
:102C78002DE9FF4755EC104B0D9FDDF830A0002DD6
:102C88000E4691461946B8BF22462B4627F0200724
:102C9800BBBF05F100431D4600232D23B8BF1446D2
:102CA800462F0B7004D0452F00D10136022100E0D9
:102CB800032103AB019302AB00933246534645EC24
:102CC800104B00F0ADFB472F804602D119F0010FE1
:102CD80026D0462F08EB060911D198F80030302B82
:102CE8000AD10022002320462946FDF791FE18B993
:102CF800C6F10106CAF80060DAF8003099440022EB
:102D0800002320462946FDF783FE38B93022039B6D
:102D1800994505D9591C03911A70F8E7CDF80C901C
:102D2800039B0E9AA3EB08034046136004B0BDE86A
:102D3800F087F7B503460029B8BF494203F8022BCC
:102D4800B4BF2D222B220929427020DD0DF1070284
:102D580017460A2691FBF6F506FB15113031092DA9
:102D680002F8011C02F1FF34294609DC3031023A2D
:102D780004F8011CBA421C4604D3201A03B0F0BD63
:102D88002246E7E712F8011B03F8011BF2E730229D
:102D98001C46114404F8022B5970EEE72DE9F04F58
:102DA8008DB00C46DDF8588016461F46054601F0E2
:102DB80005F9036804931846FDF702FA00230A93FD
:102DC800D8F800300590073323F0070303F1080211
:102DD80094F818A0D4F800B0C8F80020D3E900236C
:102DE800C4E91223D4E9128929F000430793CDF8E6
:102DF80018804FF0FF32A54BDDE90601FDF73AFEDA
:102E0800002840F0FB814FF0FF32A04BDDE90601BE
:102E1800FDF712FE002840F0F18100220023404611
:102E28004946FDF7FFFD10B12D2384F84330984B38
:102E3800984ABAF1470F8CBF9046984603232BF067
:102E48000402236122604FF00009009733460BAA61
:102E58002146284600F0E2F9013040F093804FF017
:102E6800FF300DB0BDE8F08F61684B1C4BF48062F9
:102E78003FD106236360002303930AAB029309AB97
:102E8800009349EC108B0DF123032260CDF804A0C8
:102E980061682846FFF7ECFE0AF0DF03472B8046FF
:102EA80009D1099BD81C02DB6268934257DDAAF15D
:102EB800020A5FFA8AFABAF1650F099934D801391A
:102EC800524604F150000991FFF733FF0A9A83181C
:102ED800012A8146236102DC2268D10701D501332A
:102EE80023619DF82330002BAFD02D2384F8433085
:102EF800ABE7BAF1670F02D0BAF1470FBBD189B17E
:102F0800002303930AAB029309AB009349EC108B9F
:102F18002260CDF804A00DF123032846FFF7A8FE90
:102F28008046BEE70123A5E7BAF1660F19D100294B
:102F380063680CDD216113B92268D20702D5013319
:102F48000B442361099BA3654FF00009C9E713B936
:102F58002268D00701D50233F3E70123F1E74FF0E8
:102F6800670A099B0A9A934205DB22682361D10705
:102F7800E8D50133E5E7002BD4BFC3F102030123F1
:102F88001344DEE723685A0507D4236942463146CD
:102F98002846B84701302BD161E7BAF1650F40F2F6
:102FA800E28000220023D4E91201FDF731FD002858
:102FB8003CD00123384A31462846B84701303FF40F
:102FC8004EAF0A9B099A9A4202DB2368D8070FD5AD
:102FD800059B049A31462846B84701303FF43FAF75
:102FE8004FF0000804F11A090A9B013B984512DBCF
:102FF80023689B0709D54FF0000804F11909E36815
:103008000B9A9B1A9845C0F2EE80E0680B9B984299
:10301800B8BF184625E701234A4631462846B8472F
:1030280001303FF41CAF08F10108DDE7099B002BD4
:1030380034DC0123184A31462846B84701303FF4AA
:103048000EAF099B23B90A9B13B92368D907CFD5BB
:10305800059B049A31462846B84701303FF4FFAE35
:103068004FF0000904F11A0A099B5B42994501DBFC
:103078000A9B8BE70123524631462846B847013060
:103088003FF4EDAE09F10109EEE700BFFFFFEF7F66
:103098001347000817470008234700080A9AA36D3A
:1030A8009A42A8BF1A46002A914638DC04F11A034E
:1030B8004FF0000B29EAE9790693D4F858A0AAEB57
:1030C80009039B4533DB0A9B099A9A423ADB23683A
:1030D800DA0737D40A9B0999A3EB0A02A3EB010983
:1030E8009145A8BF9146B9F1000F33DC4FF00008B5
:1030F80029EAE97904F11A0A099A0A9B9B1AA3EBAF
:1031080009039845BFF674AF012352463146284655
:10311800B84701303FF4A3AE08F10108ECE71346C5
:10312800314642462846B8470130BFD197E60123C9
:10313800069A31462846B84701303FF490AE0BF165
:10314800010BBAE7059B049A31462846B847013077
:10315800C0D184E64B4608EB0A0231462846B847F8
:103168000130C3D17BE60A9A012A01DCDB0737D597
:103178000123424631462846B84701303FF46FAE36
:10318800059B049A31462846B84701303FF467AE9C
:1031980000220023D4E91201FDF73AFC58B14FF0A0
:1031A800000804F11A0A0A9B013B98450DDB4B46BF
:1031B80004F15002EBE60A9B08F10102013B31469B
:1031C8002846B8470130F2D149E601235246314634
:1031D8002846B84701303FF442AE08F10108E2E75B
:1031E80001234246EBE701234A4631462846B847C1
:1031F80001303FF434AE08F1010800E742464B467F
:1032080040464946FDF736FC00283FF42DAE014BF9
:10321800014A0EE61B4700081F4700082DE9F04742
:1032280091461F468A680B69DDF820809342B8BF33
:103238001346C9F8003091F8432006460C4612B1EF
:103248000133C9F800302368990642BFD9F8003025
:103258000233C9F80030256815F0060507D104F1D6
:10326800190AE368D9F800209B1A9D4229DB94F8D3
:1032780043302268003318BF012392062ED404F18C
:10328800430239463046C047013021D02368E568FB
:10329800D9F8002003F00603042B08BFAD1AA36871
:1032A80022690CBF25EAE57500259342C4BF9B1A25
:1032B800ED184FF000091A344D451BD10020BDE828
:1032C800F0870123524639463046C047013003D1C2
:1032D8004FF0FF30BDE8F0870135C2E7E1185A1C0E
:1032E800302081F84300224494F8451082F84310B6
:1032F8000233C4E70123224639463046C04701302D
:10330800E6D009F10109D7E72DE9F74F03690C6900
:103318009C42804600F38280013C01F114074FEA89
:10332800840E00F1140657F8245056F8240006EBD2
:103338000E03013507EB0E090193B0FBF5F595B3C4
:103348004FF0000A3846B446D34650F8042B93B2DF
:1033580005FB03A34FEA134A9BB2ABEB0303120C22
:10336800BCF800B005FB02A213FA8BF34FEA124A2D
:103378001FFA82FBDCF80020CBEB124202EB23425F
:103388009BB243EA024381454FEA224B4CF8043B87
:10339800DBD256F80E3033B9019B043B9E421A46E5
:1033A80030D3C8F81040404601F033F8002825DB38
:1033B800013530464FF0000E57F8042BD0F800C006
:1033C80093B2AEEB0303120C13FA8CF3C2EB1C425C
:1033D80002EB23429BB243EA0243B9454FEA224E2D
:1033E80040F8043BE8D256F8242006EB84032AB9B7
:1033F800043B9E421A460BD3C8F81040284603B037
:10340800BDE8F08F1268043B002ACAD1013CC5E729
:103418001268043B002AEFD1013CEAE70020EEE7FE
:103428002DE9F04F57EC106B97B0CDE90067466A6D
:10343800079104460A920F93209D3EB9102000F090
:10344800CBFD6062466086600660C660636A196884
:1034580051B15A684A60012393408B60204600F0BE
:1034680002FE636A00221A60019B002BBFBF012382
:103478002B60019B23F00043B2BF019300232B6014
:10348800DDF80480A84B33EA08031BD10F9A42F2F7
:103498000F731360009B23B9C8F31300002800F0D2
:1034A8007885219B53B9A14B21E0A14B02930833A6
:1034B800219A1360029817B0BDE8F08F9B4B0293D6
:1034C8000333F5E7DDE9006700220023304639467B
:1034D800FDF79EFA814660B10F9A01231360219B84
:1034E800002B00F05385934B219A1360013B029304
:1034F800E0E714AA15A947EC106B204601F001F883
:10350800C8F30A558246002D7ED0C7F3130343F053
:103518007F51304641F44011A5F2FF35CDF848906F
:103528000022854BFCF758FE79A3D3E90023FDF769
:1035380007F879A3D3E90023FCF750FE064628468E
:103548000F46FCF797FF76A3D3E90023FCF7F8FFB3
:1035580002460B4630463946FCF740FE06460F4603
:10356800FDF79EFA00228346002330463946FDF7D0
:1035780059FA58B15846FCF77DFF02460B463046CB
:103588003946FDF745FA08B90BF1FF3BBBF1160FB9
:1035980059D86A4901EBCB01DDE90023D1E90001E3
:1035A800FDF75EFA002850D00BF1FF3B00230E9385
:1035B800149B5D1B6B1E069345BFC5F10103059364
:1035C800002300234CBF06930593BBF1000F3EDB9D
:1035D800069BCDF82CB05B44069300230893079B09
:1035E800092B00F2AF80052BC4BF043B0793079B50
:1035F800A3F10203CCBF00260126032B00F2AE8004
:10360800DFE803F082842F77159B149D1D4405F293
:103618003243202B11DD009A05F21240C3F140031A
:1036280022FA00F008FA03F31843FCF713FF01230A
:10363800A1F1F871013D129372E7C3F12000009BDC
:1036480003FA00F0F1E70123B1E70E90B0E7059B1C
:10365800A3EB0B030593CBF10003089300230B9313
:10366800BDE7012309930A9B002B7ADD049303939A
:10367800656A00226A60042101F114029A4275D930
:103688006968204600F0BBFC636A28601B680293E7
:10369800039B0E2B00F2E580002E00F0E2809DEDEA
:1036A800007BBBF1000F8DED0C7B74DD234A0BF022
:1036B8000F034FEA2B1602EBC303F006D3E9008988
:1036C80059D51F4B51EC170BD3E90823FDF762F8C6
:1036D800CDE9000106F00F060325194F002E4CD145
:1036E80042464B46DDE90001FDF754F8CDE90001FB
:1036F8006AE0012309930A9B5B4404930133012B7D
:103708000393B8BF0123B3E70023ABE70023F1E736
:1037180061436F63A787D23FB3C8608B288AC63FCF
:10372800FB799F501344D33F0000F07F2E470008D9
:1037380025470008244700080000F83F60470008B4
:103748003847000801260023079309964FF0FF33F6
:1037580004930393002212230A9289E70123099311
:10376800F4E70123049303931A46F5E76A680132E4
:103778006A60490080E70225AFE7F10708D54046AF
:103788004946D7E90023FCF7DBFE01358046894628
:1037980076100837A2E700F09D80CBF100069F4B1A
:1037A8009F4F06F00F0203EBC203D3E90023DDE9C4
:1037B8000C01FCF7C5FECDE90001361100230225F6
:1037C800002E7CD1002B91D10E9B002B00F0848021
:1037D800DDE900890022934B40464946FDF722F96E
:1037E800002879D0039B002B76D0049B002B34DD76
:1037F80000228D4B40464946FCF7A2FECDE9000168
:10380800049E0BF1FF3701352846FCF733FEDDE94E
:103818000023FCF795FE0022844BFCF7DFFC804672
:10382800A1F15079002E5AD10022814BDDE9000127
:10383800FCF7D2FC42464B46CDE90001FDF710F9F2
:10384800002840F09B82424609F10043DDE900016F
:10385800FDF7E8F8002840F08F82DDE90C23CDE978
:103868000023159B002BC0F25081BBF10E0F00F313
:103878004C816A4B03EBCB03D3E900890A9B002BED
:1038880080F2DA80039B002B00F3D68040F073822D
:103898000022674B40464946FCF752FEDDE900230B
:1038A800FDF7D4F8039E3746002840F04A82029B71
:1038B800029A5D1C312313700BF1010B45E2F207EC
:1038C80005D5D7E90023FCF73BFE01350123761027
:1038D800083775E7022577E75F46039E94E7029A63
:1038E8004E4B32441392099A711E002A48D003EBBA
:1038F800C103D3E9002300204E49FCF74BFF4246A1
:103908004B46FCF769FC029D80468946DDE90001CB
:10391800FDF7C6F80646FCF7ADFD02460B46DDE9A5
:103928000001FCF759FC303605F8016B42464B465E
:10393800CDE90001FDF776F8002865D1DDE900231F
:1039480000203849FCF748FC42464B46FDF76AF828
:10395800002840F0BA80139B9D423FF47EAF0022BE
:10396800314B40464946FCF7EBFD0022804689462C
:103978002D4BDDE90001FCF7E3FDCDE90001C5E7CA
:1039880003EBC10142464B46D1E90001FCF7D8FDE3
:10399800CDE91001029DDDE90001FDF781F8064639
:1039A800FCF768FD303602460B46DDE90001FCF7FE
:1039B80013FC05F8016B139BAB42804689464FF018
:1039C800000225D11B4BDDE91001FCF707FC02467C
:1039D8000B4640464946FDF743F8002875D1DDE916
:1039E800102300201349FCF7F7FB02460B4640461C
:1039F8004946FDF717F800283FF42FAF15F8013CAA
:103A0800302B05F1FF3201D0BB464DE01546F5E7F6
:103A1800054BFCF795FDCDE90001BCE760470008C0
:103A2800384700080000F03F0000244000001C4018
:103A3800000014400000E03FDDE90067029D4246B7
:103A48004B4630463946FCF7A5FEFDF729F80090AD
:103A5800FCF710FD42464B46FCF772FD02460B464A
:103A680030463946FCF7B8FB009E039F303605F810
:103A7800016B029EAE1BB74202460B4638D1FCF7DB
:103A8800ADFB06460F4602460B4640464946FCF744
:103A9800C9FFC8B932463B4640464946FCF7B8FF1D
:103AA80010B1009BDB070FD45146204600F0DBFA2B
:103AB80000230F9A2B700BF101031360219B002B3D
:103AC8003FF4F8AC1D60F5E45F4615F8012C392A7F
:103AD80005F1FF3306D1029A9A4207D130231370B9
:103AE800013713461A7801321A708DE71D46ECE744
:103AF8000022A44BFCF724FD0022002306460F46B3
:103B0800FCF786FF00289AD0CEE7099A002A00F031
:103B1800CD80079A012A00F3AF80129A002A00F09C
:103B2800A78003F23343089E059D059A1A4405921F
:103B3800069A01211A442046069200F034FB0746F3
:103B4800002D0CDD069B002B09DDAB42059AA8BFB2
:103B58002B46D21A0592069AED1AD31A0693089B99
:103B6800F3B1099B002B00F0A580002E10DD39462B
:103B78003246204600F0AEFB524601460746204634
:103B880000F01AFB51468046204600F06CFAC24607
:103B9800089B9A1B04D05146204600F09BFB8246A6
:103BA8000121204600F0FFFA0B9B002B064640F34C
:103BB80083801A460146204600F08CFB079B012BA8
:103BC80006467CDD4FF00008336906EB830318696D
:103BD80000F09BFAC0F12000069B184410F01F006B
:103BE80000F09680C0F12003042B40F38780059BEA
:103BF800C0F11C0003440593069B05440344069347
:103C0800059B002B05DD51461A46204600F0B0FB07
:103C18008246069B002B05DD31461A46204600F0F9
:103C2800A7FB06460E9B002B74D03146504600F089
:103C3800F0FB00286EDA002351460A22204600F0E5
:103C480029FA099B0BF1FF3B8246002B00F0A88163
:103C5800002339460A22204600F01CFA049B002B58
:103C6800074600F3C880079B022B40F3C48059E045
:103C7800149BC3F1360356E7039B5E1E089BB342B1
:103C8800BFBF089B0896F21A0B9BB6BF9B189E1BDA
:103C98000B93039BB8BF0026002BB9BF059B039A63
:103CA800059D039BBCBF9D1A00233EE7089E059D0A
:103CB800099F45E7089A6EE7079B012B19DC009BD3
:103CC800BBB9019BC3F313039BB9019B23F00043CA
:103CD8001B0D1B0583B1059B01330593069B01331F
:103CE80006934FF001080B9B002B7FF46DAF01206A
:103CF80072E74FF00008F6E79846F4E780D0059A97
:103D08001C331A440592069A1A441D44134676E752
:103D18000346F4E7039B002B36DC079B022B33DDBD
:103D2800039B0493049B63B931460522204600F0A7
:103D3800B1F901460646504600F06BFB00283FF7F4
:103D4800B6AD0A9B029D6FEA030B0023039331462D
:103D5800204600F088F9002F3FF4A6AE039B2BB154
:103D6800BB4203D01946204600F07DF9394620466B
:103D780000F079F998E600263746E2E7BB46374671
:103D880095E500BF00002440099B93BB039B049367
:103D9800029D31465046FFF7B7FA00F1300905F8A1
:103DA800019B029B049AEB1A9A4200F3DC80029B67
:103DB800012AACBF9B180133984600230393514650
:103DC8000122204600F0D4FA3146824600F021FB59
:103DD800002800F38D8003D119F0010F40F088808E
:103DE800454615F8013C302B05F1FF32AFD1154699
:103DF800F7E7039B0493002D05DD39462A46204644
:103E080000F0B6FA0746B8F1000F4CD079682046A2
:103E180000F0F5F83A6902320546920007F10C0104
:103E28000C3000F0E1F801222946204600F0A0FA03
:103E3800009BDDF80880039703F00103074605930C
:103E480031465046FFF760FA0399054600F13009FC
:103E5800504600F0DEFA3A4600903146204600F01F
:103E6800F2FAC368024603BB01460690504600F0CA
:103E7800D0FA069A034611462046069300F0F3F856
:103E8800069BA3B9079A92B9059A82B9B9F1390F75
:103E980029D0009B002B01DD05F1310908F101054E
:103EA80088F8009053E73846C2E70123E3E7009A11
:103EB800002A04DB25D1079A1ABB059A0ABB002BF6
:103EC800ECDD51460122204600F052FA3146824686
:103ED80000F09FFA002803DCE0D119F0010FDDD0D3
:103EE800B9F1390FD8D1392388F8003008F1010821
:103EF800454615F8013C392B05F1FF323BD001331B
:103F080040E0002B08F1010505DDB9F1390FEAD0D1
:103F180009F10109C4E7029B049A05F8019CEB1A10
:103F28009342A8463FF44BAF514600230A2220464D
:103F380000F0B0F8039B0399BB4282464FF00003A0
:103F48004FF00A02204604D100F0A4F80390074677
:103F580076E700F09FF8002303900A2239462046AE
:103F680000F098F8F3E7514600230A22204600F0B3
:103F780091F882460DE7029B934205D1029A0BF114
:103F8800010B31231370E2E61546B2E7094BFFF740
:103F9800AEBA219B002B7FF488AA074BFFF7A7BA7C
:103FA800049B002B3FF7F4AE079B022B7FF7F0AE84
:103FB800B8E600BF2347000825470008044B1B68E4
:103FC800186A044B002808BF1846F030704700BF35
:103FD80050010020B4010020024B0146186800F08F
:103FE800EDBA00BF5001002010B5431E0A449142AB
:103FF80000D110BD11F8014B03F8014FF7E770B578
:10400800456A04460E463DB91020FFF7E5FF606299
:10401800456085600560C560656AEB6883B1636A61
:10402800DB6853F82600B8B9012101FA06F56A1DC4
:104038009200204600F0B4FA60B1466085600EE058
:1040480021220421204600F0ABFA636AE860DB68AD
:10405800002BE4D1002070BD026843F8262000231D
:104068000361C36070BD70B5446A06460D463CB92D
:104078001020FFF7B1FF7062446084600460C46080
:104088003DB1736A6A68DB6853F82210296043F807
:10409800225070BD2DE9F0410D691F4606460C46B9
:1040A80001F1140E0023DEF8000081B202FB017159
:1040B8000F0C000C02FB007089B2013301EB0041C8
:1040C8009D424FEA10474EF8041BECDCD7B1A368B9
:1040D8009D4212DB616830460131FFF790FF22698B
:1040E800023204F10C01804692000C30FFF77CFF8D
:1040F80021463046FFF7B7FF444604EB85030135F8
:104108005F6125612046BDE8F081020C1204034678
:10411800B2B90304102013F07F4F04BF1B0208300C
:1041280013F0704F04BF1B01043013F0404F04BF5D
:104138009B000230002B06DB5B0003D50130704783
:104148000020E8E720207047036813F007020146C3
:104158000BD0DA0723D4980749BF5B089B080120D6
:104168000B605CBF0B600220704798B2A8B91B0CAB
:10417800102013F0FF0F04BF1B0A08301A0704BFF2
:104188001B0904309A0704BF9B080230DA0702D4DF
:104198005B0806D001300B6070471046E9E7002045
:1041A80070472020704710B50C460121FFF727FF04
:1041B80001224461026110BD2DE9F74F14460A69D6
:1041C80023699A42B8BF0B468946BCBFA1461C4624
:1041D800D9F81070D4F810A0D9F80830D9F804101C
:1041E80007EB0A069E42C8BF0131FFF708FF00F13E
:1041F800140505EB86082B460022434516D304F127
:10420800140209F1140102EB8A0301EB87070193F9
:10421800019C944213460CD8002E03DD58F8043D47
:10422800002B54D0066103B0BDE8F08F43F8042B8F
:10423800E3E7B3F800A00432BAF1000F20D0AE468D
:1042480089464FF0000C59F8044BBEF800B0A3B2F1
:104258000AFB03B34FEA144BDEF8004063444FEA0D
:10426800144C0AFB0BC404EB13449BB243EA04430B
:104278004F454FEA144C4EF8043BE4D8CEF800C042
:1042880032F8029CB9F1000F1FD02B68AE468C465D
:104298004FF0000ABCF80040BEF802B009FB04B4B5
:1042A800A2449BB243EA0A434EF8043B5CF8043B41
:1042B800BEF800401B0C09FB034303EB1A43674598
:1042C8004FEA134AE6D8CEF800300435A0E7013E9D
:1042D800A2E700002DE9F843154612F0030206464E
:1042E8000F4607D0013A214C002354F82220FFF74B
:1042F800D1FE0746AD1035D0746A3CB91020FFF7DF
:104308006BFE7062446084600460C460D6F82480E8
:10431800D8F808404CB940F271213046FFF743FF06
:104328000023C8F80800044603604FF00008EB07B4
:104338000AD5394622463046FFF73EFF39468146C0
:104348003046FFF790FE4F466D100BD0206838B905
:10435800224621463046FFF72FFF2060C0F8008034
:104368000446E4E73846BDE8F88300BF284800085B
:104378002DE9F0470C464FEA621A236949680AEBAF
:104388000309A3680746164609F10105AB4231DB6C
:104398003846FFF734FE0022804600F11403114628
:1043A80052452ADB20692AEAEA7A04F1140116F058
:1043B8001F0203EB8A0301EB800E22D0C2F1200C0E
:1043C80000200E689640304343F8040B51F8040B64
:1043D8008E4520FA0CF0F4D8186008B109F10205EE
:1043E800013D3846C8F810502146FFF73CFE4046CC
:1043F800BDE8F08701315B00C8E743F822100132BD
:10440800CEE7043B51F8042B43F8042F8E45F9D826
:10441800E6E703690A699B1A30B50CD1920014309B
:1044280014318418114454F8045D51F8042D954250
:1044380003D005D30123184630BDA042F3D3FAE7D1
:104448004FF0FF33F7E72DE9F0470D4607461146D1
:1044580028461446FFF7DDFF061E08D131463846C8
:10446800FFF7CDFD012303614661BDE8F087A4BFD6
:1044780023462C4638466168A6BF1D4600260126FD
:10448800FFF7BDFD2B69C660266905F1140904F123
:10449800140202EB860709EB830800F114054FF0BC
:1044A800000C52F804AB59F8044B1CFA8AF1A3B279
:1044B800C91A230CC3EB1A4303EB214389B24FEA11
:1044C800234CC84541EA0343964645F8043BE8D8DF
:1044D800BE4505D355F8043D8BB10661BDE8F087AC
:1044E8005EF8041B1CFA81F31A1402EB11429BB20A
:1044F80043EA02434FEA224C45F8043BE8E7013E11
:10450800E8E72DE9F7430E46012159EC108B1546D3
:10451800FFF775FDC9F30A540746C9F3130334BB03
:104528000193B8F1000F27D002A840F8088DFFF7D3
:104538000BFE0099F0B1019AC0F1200302FA03F3CF
:104548000B43C2407B610192019BBB61002B14BFEE
:10455800022101213961C4B1A4F233440444346016
:10456800C0F135002860384603B0BDE8F08343F455
:104578008013D5E77961E7E701A8FFF7E5FD019B1F
:104588007B61012139612030E5E707EB8103A0F267
:10459800324030601869FFF7B8FDC0EB4110E1E721
:1045A80038B502FB01F4214600F008F8054618B1B9
:1045B8002246002100F082F8284638BD70B5CD1C8F
:1045C80025F0030508350C2D38BF0C25002D0646AF
:1045D80001DBA94203D90C233360002070BD00F031
:1045E80075F8234A1468214691B9224C23681BB9EF
:1045F800304600F041F820602946304600F03CF88B
:10460800431C26D10C233360304600F060F8E4E701
:104618000B685B1B1AD40B2B0FD90B60CD50CC1831
:10462800304600F054F804F10B00231D20F0070079
:10463800C31A1BD05A42E25070BD8C420DBF63684A
:104648004B686360136018BF0C46E9E70C4649687D
:10465800CAE7C41C24F00304A04205D0211A30463E
:1046680000F00AF80130CDD02560D9E770BD00BF51
:10467800800400208404002038B5064C0023054639
:1046880008462360FEF760F8431C02D1236803B193
:104698002B6038BDD404002082B001B901A942B111
:1046A8004BB113780B601278101C18BF012002B0B0
:1046B80070471046FBE76FF00100F8E70244034635
:1046C800934200D1704703F8011BF9E77047704720
:1046D80049B1FF2A85BF8A2303600A704FF0FF3073
:1046E80098BF01207047084670470000F8B500BF22
:1046F800F8BC08BC9E467047F8B500BFF8BC08BCBB
:044708009E46704712
:10471000101112494E4600696E66004E414E006E01
:10472000616E003000496E66696E697479004E6191
:104730004E000000000000000080E03779C34143D4
:10474000176E05B5B5B89346F5F93FE9034F384DF7
:10475000321D30F94877825A3CBF737FDD4F1575A3
:10476000000000000000F03F0000000000002440B6
:1047700000000000000059400000000000408F4091
:10478000000000000088C34000000000006AF840FC
:104790000000000080842E4100000000D012634120
:1047A0000000000084D797410000000065CDCD4196
:1047B000000000205FA00242000000E87648374277
:1047C000000000A2941A6D42000040E59C30A24215
:1047D0000000901EC4BCD64200003426F56B0C438A
:1047E0000080E03779C3414300A0D8855734764331
:1047F00000C84E676DC1AB43003D9160E458E14392
:10480000408CB5781DAF154450EFE2D6E41A4B4406
:1048100092D54D06CFF08044F64AE1C7022DB5444B
:10482000B49DD9794378EA440500000019000000DE
:104830007D0000004300504F534958002E000020D7
:104840002020202020202020282828282820202040
:1048500020202020202020202020202020202088F0
:104860001010101010101010101010101010100454
:1048700004040404040404040410101010101010A4
:104880004141414141410101010101010101010198
:1048900001010101010101010101101010101010AE
:1048A0004242424242420202020202020202020268
:1048B0000202020202020202020210101010200084
:1048C00000000000000000000000000000000000E8
:1048D00000000000000000000000000000000000D8
:1048E00000000000000000000000000000000000C8
:1048F00000000000000000000000000000000000B8
:1049000000000000000000000000000000000000A7
:104910000000000000000000000000000000000097
:104920000000000000000000000000000000000087
:104930000000000000000000000000000000000077
:04494000AD010008BD
:0449440089010008DD
:1049480048454C4C4F574F524C44414100000000E1
:10495800000000000000024000040240000802407D
:10496800000C0240001002400014024000180240EF
:10497800001C0240002002403F010100000002022A
:10498800010000070302010000071A0201000007E6
:104998001B020100000700020100000801020100DB
:1049A800000831020200000930020200000900007C
:1049B8003132204D757261642053747265657420BC
:1049C8004D616E69616C2047697A612031323531F9
:1049D8003320456779707400000000000000000073
:1049E80000000100020004000800100040008000E0
:1049F80000010002020408100010014000440040B9
:104A080000480040004C00400050004000140140A5
:104A1800010200008025000000000000E9250008D0
:104A2800790C00080202000000C20100000000002A
:104A3800DD170008F51700080302000000C2010096
:104A480000000000E9250008B50B00084142434476
:104A5800000000400004004000080040000C004036
:104A68000000530000000000D00700000000000014
:104A78000100530000000000A861000000000000D1
:104A88000200530000000000A086010000000000A2
:104A98005401002000000000000000000000000099
:104AA80000000000000000000000000000000000FE
:104AB80000000000000000000000000000000000EE
:104AC80000000000000000000000000000000000DE
:104AD80000000000000000000000000000000000CE
:104AE80000000000000000000000000000000000BE
:104AF800000000004300000000000000000000006B
:104B0800000000000000000000000000000000009D
:104B1800000000004300000000000000000000004A
:104B2800000000000000000000000000000000007D
:104B3800000000004300000000000000000000002A
:104B4800000000000000000000000000000000005D
:104B5800000000004300000000000000000000000A
:104B6800000000000000000000000000000000003D
:104B780000000000430000000000000000000000EA
:104B8800000000000000000000000000000000001D
:104B980000000000430000000000000000000000CA
:104BA80000000000000000000000000000000000FD
:104BB80000000000430000000000000000000000AA
:104BC80000000000000000000000000000000000DD
:104BD80000000000D9460008A146000800000000B7
:104BE8003E4800083C4800083D4800083D48000889
:104BF8003D4800083D4800083D4800083D48000879
:104C08003D4800083D4800083D480008FFFFFFFFF9
:104C1800FFFFFFFFFFFFFFFFFFFF00000100415301
:104C280043494900000000000000000000000000A7
:104C380000000000000000000000000000004153D8
:104C48004349490000000000000000000000000087
:104C5800000000000000000000000000000000004C
:04000005080026A128
:00000001FF
